{
  "_format": "hh-sol-artifact-1",
  "contractName": "IPFS",
  "sourceName": "contracts/IPFS.sol",
  "abi": [
    {
      "anonymous": false,
      "inputs": [
        {
          "indexed": true,
          "internalType": "address",
          "name": "sender",
          "type": "address"
        },
        {
          "indexed": false,
          "internalType": "address",
          "name": "receiver",
          "type": "address"
        },
        {
          "indexed": false,
          "internalType": "uint256",
          "name": "amount",
          "type": "uint256"
        },
        {
          "indexed": false,
          "internalType": "uint256",
          "name": "timestamp",
          "type": "uint256"
        },
        {
          "components": [
            {
              "internalType": "address",
              "name": "user",
              "type": "address"
            },
            {
              "internalType": "bytes32[]",
              "name": "transactions",
              "type": "bytes32[]"
            }
          ],
          "indexed": false,
          "internalType": "struct IPFS.Registered_User[]",
          "name": "registeredUsers",
          "type": "tuple[]"
        }
      ],
      "name": "Register",
      "type": "event"
    },
    {
      "inputs": [],
      "name": "getRegisteredUsers",
      "outputs": [
        {
          "components": [
            {
              "internalType": "address",
              "name": "user",
              "type": "address"
            },
            {
              "internalType": "bytes32[]",
              "name": "transactions",
              "type": "bytes32[]"
            }
          ],
          "internalType": "struct IPFS.Registered_User[]",
          "name": "",
          "type": "tuple[]"
        }
      ],
      "stateMutability": "view",
      "type": "function"
    },
    {
      "inputs": [
        {
          "internalType": "address",
          "name": "_to",
          "type": "address"
        },
        {
          "internalType": "uint256",
          "name": "_amount",
          "type": "uint256"
        }
      ],
      "name": "registerUser",
      "outputs": [],
      "stateMutability": "payable",
      "type": "function"
    },
    {
      "inputs": [
        {
          "internalType": "uint256",
          "name": "",
          "type": "uint256"
        }
      ],
      "name": "registeredUsers",
      "outputs": [
        {
          "internalType": "address",
          "name": "user",
          "type": "address"
        }
      ],
      "stateMutability": "view",
      "type": "function"
    },
    {
      "inputs": [],
      "name": "systemAccount",
      "outputs": [
        {
          "internalType": "address payable",
          "name": "",
          "type": "address"
        }
      ],
      "stateMutability": "view",
      "type": "function"
    }
  ],
  "bytecode": "0x608060405234801561001057600080fd5b50610cd9806100206000396000f3fe60806040526004361061003f5760003560e01c80637073c072146100445780637259e0f81461006f578063e2af3980146100ac578063fa0b5e55146100d7575b600080fd5b34801561005057600080fd5b506100596100f3565b60405161006691906107a0565b60405180910390f35b34801561007b57600080fd5b50610096600480360381019061009191906107fd565b610200565b6040516100a39190610839565b60405180910390f35b3480156100b857600080fd5b506100c161024e565b6040516100ce9190610875565b60405180910390f35b6100f160048036038101906100ec91906108bc565b610274565b005b60606003805480602002602001604051908101604052809291908181526020016000905b828210156101f757838290600052602060002090600202016040518060400160405290816000820160009054906101000a900473ffffffffffffffffffffffffffffffffffffffff1673ffffffffffffffffffffffffffffffffffffffff1673ffffffffffffffffffffffffffffffffffffffff168152602001600182018054806020026020016040519081016040528092919081815260200182805480156101df57602002820191906000526020600020905b8154815260200190600101908083116101cb575b50505050508152505081526020019060010190610117565b50505050905090565b6003818154811061021057600080fd5b90600052602060002090600202016000915090508060000160009054906101000a900473ffffffffffffffffffffffffffffffffffffffff16905081565b600160009054906101000a900473ffffffffffffffffffffffffffffffffffffffff1681565b8034146102b6576040517f08c379a00000000000000000000000000000000000000000000000000000000081526004016102ad90610959565b60405180910390fd5b600360405180604001604052803373ffffffffffffffffffffffffffffffffffffffff168152602001600067ffffffffffffffff8111156102fa576102f9610979565b5b6040519080825280602002602001820160405280156103285781602001602082028036833780820191505090505b50815250908060018154018082558091505060019003906000526020600020906002020160009091909190915060008201518160000160006101000a81548173ffffffffffffffffffffffffffffffffffffffff021916908373ffffffffffffffffffffffffffffffffffffffff16021790555060208201518160010190805190602001906103b892919061052e565b5050508173ffffffffffffffffffffffffffffffffffffffff166108fc829081150290604051600060405180830381858888f19350505050158015610401573d6000803e3d6000fd5b50336003600160038054905061041791906109d7565b8154811061042857610427610a0b565b5b906000526020600020906002020160000160006101000a81548173ffffffffffffffffffffffffffffffffffffffff021916908373ffffffffffffffffffffffffffffffffffffffff1602179055506003600160038054905061048b91906109d7565b8154811061049c5761049b610a0b565b5b9060005260206000209060020201600101434090806001815401808255809150506001900390600052602060002001600090919091909150553373ffffffffffffffffffffffffffffffffffffffff167f71cf8c104d29c18489e7b0ee04722fcbead8c1d1632cc1ff936c1538ae94c09283834260036040516105229493929190610c57565b60405180910390a25050565b82805482825590600052602060002090810192821561056a579160200282015b8281111561056957825182559160200191906001019061054e565b5b509050610577919061057b565b5090565b5b8082111561059457600081600090555060010161057c565b5090565b600081519050919050565b600082825260208201905092915050565b6000819050602082019050919050565b600073ffffffffffffffffffffffffffffffffffffffff82169050919050565b60006105ef826105c4565b9050919050565b6105ff816105e4565b82525050565b600081519050919050565b600082825260208201905092915050565b6000819050602082019050919050565b6000819050919050565b61064481610631565b82525050565b6000610656838361063b565b60208301905092915050565b6000602082019050919050565b600061067a82610605565b6106848185610610565b935061068f83610621565b8060005b838110156106c05781516106a7888261064a565b97506106b283610662565b925050600181019050610693565b5085935050505092915050565b60006040830160008301516106e560008601826105f6565b50602083015184820360208601526106fd828261066f565b9150508091505092915050565b600061071683836106cd565b905092915050565b6000602082019050919050565b600061073682610598565b61074081856105a3565b935083602082028501610752856105b4565b8060005b8581101561078e578484038952815161076f858261070a565b945061077a8361071e565b925060208a01995050600181019050610756565b50829750879550505050505092915050565b600060208201905081810360008301526107ba818461072b565b905092915050565b600080fd5b6000819050919050565b6107da816107c7565b81146107e557600080fd5b50565b6000813590506107f7816107d1565b92915050565b600060208284031215610813576108126107c2565b5b6000610821848285016107e8565b91505092915050565b610833816105e4565b82525050565b600060208201905061084e600083018461082a565b92915050565b600061085f826105c4565b9050919050565b61086f81610854565b82525050565b600060208201905061088a6000830184610866565b92915050565b610899816105e4565b81146108a457600080fd5b50565b6000813590506108b681610890565b92915050565b600080604083850312156108d3576108d26107c2565b5b60006108e1858286016108a7565b92505060206108f2858286016107e8565b9150509250929050565b600082825260208201905092915050565b7f496e73756666696369656e742045746865722073656e74000000000000000000600082015250565b60006109436017836108fc565b915061094e8261090d565b602082019050919050565b6000602082019050818103600083015261097281610936565b9050919050565b7f4e487b7100000000000000000000000000000000000000000000000000000000600052604160045260246000fd5b7f4e487b7100000000000000000000000000000000000000000000000000000000600052601160045260246000fd5b60006109e2826107c7565b91506109ed836107c7565b9250828203905081811115610a0557610a046109a8565b5b92915050565b7f4e487b7100000000000000000000000000000000000000000000000000000000600052603260045260246000fd5b610a43816107c7565b82525050565b600081549050919050565b60008190508160005260206000209050919050565b60008160001c9050919050565b600073ffffffffffffffffffffffffffffffffffffffff82169050919050565b6000610aa9610aa483610a69565b610a76565b9050919050565b600081549050919050565b60008190508160005260206000209050919050565b6000819050919050565b6000610aed610ae883610a69565b610ad0565b9050919050565b6000610b008254610ada565b9050919050565b6000600182019050919050565b6000610b1f82610ab0565b610b298185610610565b9350610b3483610abb565b8060005b83811015610b6c57610b4982610af4565b610b53888261064a565b9750610b5e83610b07565b925050600181019050610b38565b5085935050505092915050565b6000604083016000808401549050610b9081610a96565b610b9d60008701826105f6565b50600184018583036020870152610bb48382610b14565b925050819250505092915050565b6000610bce8383610b79565b905092915050565b6000600282019050919050565b6000610bee82610a49565b610bf881856105a3565b935083602082028501610c0a85610a54565b8060005b85811015610c4557848403895281610c268582610bc2565b9450610c3183610bd6565b925060208a01995050600181019050610c0e565b50829750879550505050505092915050565b6000608082019050610c6c600083018761082a565b610c796020830186610a3a565b610c866040830185610a3a565b8181036060830152610c988184610be3565b90509594505050505056fea26469706673582212205d56a00f48e732ba095feda97b032738ba6b5c0a4d3bf384a39eee1e66be5e3064736f6c63430008180033",
  "linkReferences": {},
  "deployedLinkReferences": {}
}