{
  "_format": "hh-sol-artifact-1",
  "contractName": "IPFS",
  "sourceName": "contracts/IPFS.sol",
  "abi": [
    {
      "anonymous": false,
      "inputs": [
        {
          "indexed": true,
          "internalType": "address",
          "name": "sender",
          "type": "address"
        },
        {
          "indexed": false,
          "internalType": "address",
          "name": "receiver",
          "type": "address"
        },
        {
          "indexed": false,
          "internalType": "uint256",
          "name": "amount",
          "type": "uint256"
        },
        {
          "indexed": false,
          "internalType": "uint256",
          "name": "timestamp",
          "type": "uint256"
        }
      ],
      "name": "Register",
      "type": "event"
    },
    {
      "inputs": [],
      "name": "getRegisteredUsers",
      "outputs": [
        {
          "components": [
            {
              "internalType": "address",
              "name": "user",
              "type": "address"
            },
            {
              "internalType": "bytes32[]",
              "name": "transactions",
              "type": "bytes32[]"
            }
          ],
          "internalType": "struct IPFS.Registered_User[]",
          "name": "",
          "type": "tuple[]"
        }
      ],
      "stateMutability": "view",
      "type": "function"
    },
    {
      "inputs": [
        {
          "internalType": "address",
          "name": "_to",
          "type": "address"
        },
        {
          "internalType": "uint256",
          "name": "_amount",
          "type": "uint256"
        }
      ],
      "name": "registerUser",
      "outputs": [],
      "stateMutability": "payable",
      "type": "function"
    },
    {
      "inputs": [
        {
          "internalType": "uint256",
          "name": "",
          "type": "uint256"
        }
      ],
      "name": "registeredUsers",
      "outputs": [
        {
          "internalType": "address",
          "name": "user",
          "type": "address"
        }
      ],
      "stateMutability": "view",
      "type": "function"
    },
    {
      "inputs": [],
      "name": "systemAccount",
      "outputs": [
        {
          "internalType": "address payable",
          "name": "",
          "type": "address"
        }
      ],
      "stateMutability": "view",
      "type": "function"
    }
  ],
  "bytecode": "0x608060405234801561001057600080fd5b50610a3e806100206000396000f3fe60806040526004361061003f5760003560e01c80637073c072146100445780637259e0f81461006f578063e2af3980146100ac578063fa0b5e55146100d7575b600080fd5b34801561005057600080fd5b506100596100f3565b6040516100669190610728565b60405180910390f35b34801561007b57600080fd5b5061009660048036038101906100919190610785565b610200565b6040516100a391906107c1565b60405180910390f35b3480156100b857600080fd5b506100c161024e565b6040516100ce91906107fd565b60405180910390f35b6100f160048036038101906100ec9190610844565b610274565b005b60606003805480602002602001604051908101604052809291908181526020016000905b828210156101f757838290600052602060002090600202016040518060400160405290816000820160009054906101000a900473ffffffffffffffffffffffffffffffffffffffff1673ffffffffffffffffffffffffffffffffffffffff1673ffffffffffffffffffffffffffffffffffffffff168152602001600182018054806020026020016040519081016040528092919081815260200182805480156101df57602002820191906000526020600020905b8154815260200190600101908083116101cb575b50505050508152505081526020019060010190610117565b50505050905090565b6003818154811061021057600080fd5b90600052602060002090600202016000915090508060000160009054906101000a900473ffffffffffffffffffffffffffffffffffffffff16905081565b600160009054906101000a900473ffffffffffffffffffffffffffffffffffffffff1681565b8034146102b6576040517f08c379a00000000000000000000000000000000000000000000000000000000081526004016102ad906108e1565b60405180910390fd5b600360405180604001604052803373ffffffffffffffffffffffffffffffffffffffff168152602001600067ffffffffffffffff8111156102fa576102f9610901565b5b6040519080825280602002602001820160405280156103285781602001602082028036833780820191505090505b50815250908060018154018082558091505060019003906000526020600020906002020160009091909190915060008201518160000160006101000a81548173ffffffffffffffffffffffffffffffffffffffff021916908373ffffffffffffffffffffffffffffffffffffffff16021790555060208201518160010190805190602001906103b89291906104b6565b5050508173ffffffffffffffffffffffffffffffffffffffff166108fc829081150290604051600060405180830381858888f19350505050158015610401573d6000803e3d6000fd5b5060036001600380549050610416919061095f565b8154811061042757610426610993565b5b9060005260206000209060020201600101434090806001815401808255809150506001900390600052602060002001600090919091909150553373ffffffffffffffffffffffffffffffffffffffff167f2e99fd66dad9611ac11d08dcbfdb417ac840074a8659831e928c70a92a6215e78383426040516104aa939291906109d1565b60405180910390a25050565b8280548282559060005260206000209081019282156104f2579160200282015b828111156104f15782518255916020019190600101906104d6565b5b5090506104ff9190610503565b5090565b5b8082111561051c576000816000905550600101610504565b5090565b600081519050919050565b600082825260208201905092915050565b6000819050602082019050919050565b600073ffffffffffffffffffffffffffffffffffffffff82169050919050565b60006105778261054c565b9050919050565b6105878161056c565b82525050565b600081519050919050565b600082825260208201905092915050565b6000819050602082019050919050565b6000819050919050565b6105cc816105b9565b82525050565b60006105de83836105c3565b60208301905092915050565b6000602082019050919050565b60006106028261058d565b61060c8185610598565b9350610617836105a9565b8060005b8381101561064857815161062f88826105d2565b975061063a836105ea565b92505060018101905061061b565b5085935050505092915050565b600060408301600083015161066d600086018261057e565b506020830151848203602086015261068582826105f7565b9150508091505092915050565b600061069e8383610655565b905092915050565b6000602082019050919050565b60006106be82610520565b6106c8818561052b565b9350836020820285016106da8561053c565b8060005b8581101561071657848403895281516106f78582610692565b9450610702836106a6565b925060208a019950506001810190506106de565b50829750879550505050505092915050565b6000602082019050818103600083015261074281846106b3565b905092915050565b600080fd5b6000819050919050565b6107628161074f565b811461076d57600080fd5b50565b60008135905061077f81610759565b92915050565b60006020828403121561079b5761079a61074a565b5b60006107a984828501610770565b91505092915050565b6107bb8161056c565b82525050565b60006020820190506107d660008301846107b2565b92915050565b60006107e78261054c565b9050919050565b6107f7816107dc565b82525050565b600060208201905061081260008301846107ee565b92915050565b6108218161056c565b811461082c57600080fd5b50565b60008135905061083e81610818565b92915050565b6000806040838503121561085b5761085a61074a565b5b60006108698582860161082f565b925050602061087a85828601610770565b9150509250929050565b600082825260208201905092915050565b7f496e73756666696369656e742045746865722073656e74000000000000000000600082015250565b60006108cb601783610884565b91506108d682610895565b602082019050919050565b600060208201905081810360008301526108fa816108be565b9050919050565b7f4e487b7100000000000000000000000000000000000000000000000000000000600052604160045260246000fd5b7f4e487b7100000000000000000000000000000000000000000000000000000000600052601160045260246000fd5b600061096a8261074f565b91506109758361074f565b925082820390508181111561098d5761098c610930565b5b92915050565b7f4e487b7100000000000000000000000000000000000000000000000000000000600052603260045260246000fd5b6109cb8161074f565b82525050565b60006060820190506109e660008301866107b2565b6109f360208301856109c2565b610a0060408301846109c2565b94935050505056fea26469706673582212204447c6cb54227a9255d7cfd1f6ff6fbaf639303b0102c64d8211f407cddce65e64736f6c63430008180033",
  "linkReferences": {},
  "deployedLinkReferences": {}
}