{
  "_format": "hh-sol-artifact-1",
  "contractName": "IPFS",
  "sourceName": "contracts/IPFS.sol",
  "abi": [
    {
      "anonymous": false,
      "inputs": [
        {
          "indexed": true,
          "internalType": "address",
          "name": "sender",
          "type": "address"
        },
        {
          "indexed": false,
          "internalType": "address",
          "name": "receiver",
          "type": "address"
        },
        {
          "indexed": false,
          "internalType": "uint256",
          "name": "amount",
          "type": "uint256"
        },
        {
          "indexed": false,
          "internalType": "uint256",
          "name": "timestamp",
          "type": "uint256"
        }
      ],
      "name": "Register",
      "type": "event"
    },
    {
      "inputs": [
        {
          "internalType": "address",
          "name": "_to",
          "type": "address"
        },
        {
          "internalType": "uint256",
          "name": "_amount",
          "type": "uint256"
        }
      ],
      "name": "registerUser",
      "outputs": [],
      "stateMutability": "payable",
      "type": "function"
    },
    {
      "inputs": [
        {
          "internalType": "uint256",
          "name": "",
          "type": "uint256"
        }
      ],
      "name": "registeredUsers",
      "outputs": [
        {
          "internalType": "address",
          "name": "user",
          "type": "address"
        }
      ],
      "stateMutability": "view",
      "type": "function"
    },
    {
      "inputs": [],
      "name": "systemAccount",
      "outputs": [
        {
          "internalType": "address payable",
          "name": "",
          "type": "address"
        }
      ],
      "stateMutability": "view",
      "type": "function"
    }
  ],
  "bytecode": "0x608060405234801561001057600080fd5b50610703806100206000396000f3fe6080604052600436106100345760003560e01c80637259e0f814610039578063e2af398014610076578063fa0b5e55146100a1575b600080fd5b34801561004557600080fd5b50610060600480360381019061005b9190610418565b6100bd565b60405161006d9190610486565b60405180910390f35b34801561008257600080fd5b5061008b61010b565b60405161009891906104c2565b60405180910390f35b6100bb60048036038101906100b69190610509565b610131565b005b600381815481106100cd57600080fd5b90600052602060002090600202016000915090508060000160009054906101000a900473ffffffffffffffffffffffffffffffffffffffff16905081565b600160009054906101000a900473ffffffffffffffffffffffffffffffffffffffff1681565b803414610173576040517f08c379a000000000000000000000000000000000000000000000000000000000815260040161016a906105a6565b60405180910390fd5b600360405180604001604052803373ffffffffffffffffffffffffffffffffffffffff168152602001600067ffffffffffffffff8111156101b7576101b66105c6565b5b6040519080825280602002602001820160405280156101e55781602001602082028036833780820191505090505b50815250908060018154018082558091505060019003906000526020600020906002020160009091909190915060008201518160000160006101000a81548173ffffffffffffffffffffffffffffffffffffffff021916908373ffffffffffffffffffffffffffffffffffffffff1602179055506020820151816001019080519060200190610275929190610373565b5050508173ffffffffffffffffffffffffffffffffffffffff166108fc829081150290604051600060405180830381858888f193505050501580156102be573d6000803e3d6000fd5b50600360016003805490506102d39190610624565b815481106102e4576102e3610658565b5b9060005260206000209060020201600101434090806001815401808255809150506001900390600052602060002001600090919091909150553373ffffffffffffffffffffffffffffffffffffffff167f2e99fd66dad9611ac11d08dcbfdb417ac840074a8659831e928c70a92a6215e783834260405161036793929190610696565b60405180910390a25050565b8280548282559060005260206000209081019282156103af579160200282015b828111156103ae578251825591602001919060010190610393565b5b5090506103bc91906103c0565b5090565b5b808211156103d95760008160009055506001016103c1565b5090565b600080fd5b6000819050919050565b6103f5816103e2565b811461040057600080fd5b50565b600081359050610412816103ec565b92915050565b60006020828403121561042e5761042d6103dd565b5b600061043c84828501610403565b91505092915050565b600073ffffffffffffffffffffffffffffffffffffffff82169050919050565b600061047082610445565b9050919050565b61048081610465565b82525050565b600060208201905061049b6000830184610477565b92915050565b60006104ac82610445565b9050919050565b6104bc816104a1565b82525050565b60006020820190506104d760008301846104b3565b92915050565b6104e681610465565b81146104f157600080fd5b50565b600081359050610503816104dd565b92915050565b600080604083850312156105205761051f6103dd565b5b600061052e858286016104f4565b925050602061053f85828601610403565b9150509250929050565b600082825260208201905092915050565b7f496e73756666696369656e742045746865722073656e74000000000000000000600082015250565b6000610590601783610549565b915061059b8261055a565b602082019050919050565b600060208201905081810360008301526105bf81610583565b9050919050565b7f4e487b7100000000000000000000000000000000000000000000000000000000600052604160045260246000fd5b7f4e487b7100000000000000000000000000000000000000000000000000000000600052601160045260246000fd5b600061062f826103e2565b915061063a836103e2565b9250828203905081811115610652576106516105f5565b5b92915050565b7f4e487b7100000000000000000000000000000000000000000000000000000000600052603260045260246000fd5b610690816103e2565b82525050565b60006060820190506106ab6000830186610477565b6106b86020830185610687565b6106c56040830184610687565b94935050505056fea26469706673582212206cc36f1fe23ea883fd2f9b1b5e47a4e2a2dad852819e92b7bfde2b191a51318e64736f6c63430008180033",
  "linkReferences": {},
  "deployedLinkReferences": {}
}