{
  "_format": "hh-sol-artifact-1",
  "contractName": "IPFS",
  "sourceName": "contracts/IPFS.sol",
  "abi": [
    {
      "anonymous": false,
      "inputs": [
        {
          "components": [
            {
              "internalType": "string",
              "name": "name",
              "type": "string"
            },
            {
              "internalType": "string",
              "name": "description",
              "type": "string"
            },
            {
              "internalType": "string",
              "name": "prv_key",
              "type": "string"
            },
            {
              "internalType": "string",
              "name": "pub_key",
              "type": "string"
            },
            {
              "internalType": "address",
              "name": "owner",
              "type": "address"
            },
            {
              "internalType": "address",
              "name": "system_account",
              "type": "address"
            },
            {
              "internalType": "string[]",
              "name": "members",
              "type": "string[]"
            },
            {
              "internalType": "string[]",
              "name": "filenames",
              "type": "string[]"
            },
            {
              "internalType": "string[]",
              "name": "filepaths",
              "type": "string[]"
            }
          ],
          "indexed": false,
          "internalType": "struct IPFS.Groups",
          "name": "group",
          "type": "tuple"
        }
      ],
      "name": "AddFilesToGroup",
      "type": "event"
    },
    {
      "anonymous": false,
      "inputs": [
        {
          "indexed": false,
          "internalType": "string",
          "name": "name",
          "type": "string"
        },
        {
          "indexed": false,
          "internalType": "string",
          "name": "description",
          "type": "string"
        },
        {
          "indexed": false,
          "internalType": "string",
          "name": "prv_key",
          "type": "string"
        },
        {
          "indexed": false,
          "internalType": "string",
          "name": "pub_key",
          "type": "string"
        },
        {
          "indexed": false,
          "internalType": "address",
          "name": "owner",
          "type": "address"
        },
        {
          "indexed": false,
          "internalType": "address",
          "name": "system_account",
          "type": "address"
        },
        {
          "indexed": false,
          "internalType": "string[]",
          "name": "members",
          "type": "string[]"
        }
      ],
      "name": "GroupCreated",
      "type": "event"
    },
    {
      "anonymous": false,
      "inputs": [
        {
          "indexed": true,
          "internalType": "address",
          "name": "sender",
          "type": "address"
        },
        {
          "indexed": false,
          "internalType": "address",
          "name": "receiver",
          "type": "address"
        },
        {
          "indexed": false,
          "internalType": "uint256",
          "name": "amount",
          "type": "uint256"
        },
        {
          "indexed": false,
          "internalType": "uint256",
          "name": "timestamp",
          "type": "uint256"
        },
        {
          "components": [
            {
              "internalType": "address",
              "name": "user",
              "type": "address"
            },
            {
              "internalType": "bytes32[]",
              "name": "transactions",
              "type": "bytes32[]"
            }
          ],
          "indexed": false,
          "internalType": "struct IPFS.Registered_User[]",
          "name": "registeredUsers",
          "type": "tuple[]"
        }
      ],
      "name": "Register",
      "type": "event"
    },
    {
      "anonymous": false,
      "inputs": [
        {
          "components": [
            {
              "internalType": "string",
              "name": "name",
              "type": "string"
            },
            {
              "internalType": "string",
              "name": "description",
              "type": "string"
            },
            {
              "internalType": "string",
              "name": "prv_key",
              "type": "string"
            },
            {
              "internalType": "string",
              "name": "pub_key",
              "type": "string"
            },
            {
              "internalType": "address",
              "name": "owner",
              "type": "address"
            },
            {
              "internalType": "address",
              "name": "system_account",
              "type": "address"
            },
            {
              "internalType": "string[]",
              "name": "members",
              "type": "string[]"
            },
            {
              "internalType": "string[]",
              "name": "filenames",
              "type": "string[]"
            },
            {
              "internalType": "string[]",
              "name": "filepaths",
              "type": "string[]"
            }
          ],
          "indexed": false,
          "internalType": "struct IPFS.Groups[]",
          "name": "userGroups",
          "type": "tuple[]"
        }
      ],
      "name": "returnusergroups",
      "type": "event"
    },
    {
      "inputs": [
        {
          "internalType": "string",
          "name": "groupname",
          "type": "string"
        },
        {
          "internalType": "string",
          "name": "names",
          "type": "string"
        },
        {
          "internalType": "string",
          "name": "paths",
          "type": "string"
        }
      ],
      "name": "addFilesToGroup",
      "outputs": [],
      "stateMutability": "nonpayable",
      "type": "function"
    },
    {
      "inputs": [
        {
          "internalType": "string",
          "name": "groupname",
          "type": "string"
        },
        {
          "internalType": "string",
          "name": "member",
          "type": "string"
        }
      ],
      "name": "addMemberstoGroup",
      "outputs": [],
      "stateMutability": "nonpayable",
      "type": "function"
    },
    {
      "inputs": [],
      "name": "clearRegisteredUsers",
      "outputs": [],
      "stateMutability": "nonpayable",
      "type": "function"
    },
    {
      "inputs": [
        {
          "internalType": "string",
          "name": "groupName",
          "type": "string"
        },
        {
          "internalType": "string",
          "name": "groupDescription",
          "type": "string"
        },
        {
          "internalType": "address",
          "name": "userAccount",
          "type": "address"
        },
        {
          "internalType": "address",
          "name": "system_account",
          "type": "address"
        },
        {
          "internalType": "string",
          "name": "privateKey",
          "type": "string"
        },
        {
          "internalType": "string",
          "name": "publicKey",
          "type": "string"
        }
      ],
      "name": "createGroup",
      "outputs": [],
      "stateMutability": "payable",
      "type": "function"
    },
    {
      "inputs": [],
      "name": "deleteGroups",
      "outputs": [
        {
          "internalType": "string",
          "name": "",
          "type": "string"
        }
      ],
      "stateMutability": "nonpayable",
      "type": "function"
    },
    {
      "inputs": [
        {
          "internalType": "string",
          "name": "groupname",
          "type": "string"
        }
      ],
      "name": "getGroupFiles",
      "outputs": [],
      "stateMutability": "nonpayable",
      "type": "function"
    },
    {
      "inputs": [],
      "name": "getGroups",
      "outputs": [
        {
          "components": [
            {
              "internalType": "string",
              "name": "name",
              "type": "string"
            },
            {
              "internalType": "string",
              "name": "description",
              "type": "string"
            },
            {
              "internalType": "string",
              "name": "prv_key",
              "type": "string"
            },
            {
              "internalType": "string",
              "name": "pub_key",
              "type": "string"
            },
            {
              "internalType": "address",
              "name": "owner",
              "type": "address"
            },
            {
              "internalType": "address",
              "name": "system_account",
              "type": "address"
            },
            {
              "internalType": "string[]",
              "name": "members",
              "type": "string[]"
            },
            {
              "internalType": "string[]",
              "name": "filenames",
              "type": "string[]"
            },
            {
              "internalType": "string[]",
              "name": "filepaths",
              "type": "string[]"
            }
          ],
          "internalType": "struct IPFS.Groups[]",
          "name": "",
          "type": "tuple[]"
        }
      ],
      "stateMutability": "view",
      "type": "function"
    },
    {
      "inputs": [],
      "name": "getRegisteredUsers",
      "outputs": [
        {
          "components": [
            {
              "internalType": "address",
              "name": "user",
              "type": "address"
            },
            {
              "internalType": "bytes32[]",
              "name": "transactions",
              "type": "bytes32[]"
            }
          ],
          "internalType": "struct IPFS.Registered_User[]",
          "name": "",
          "type": "tuple[]"
        }
      ],
      "stateMutability": "view",
      "type": "function"
    },
    {
      "inputs": [
        {
          "internalType": "address",
          "name": "useraccount",
          "type": "address"
        }
      ],
      "name": "getuserGroups",
      "outputs": [],
      "stateMutability": "nonpayable",
      "type": "function"
    },
    {
      "inputs": [
        {
          "internalType": "address",
          "name": "_to",
          "type": "address"
        },
        {
          "internalType": "uint256",
          "name": "_amount",
          "type": "uint256"
        }
      ],
      "name": "registerUser",
      "outputs": [],
      "stateMutability": "payable",
      "type": "function"
    },
    {
      "inputs": [
        {
          "internalType": "uint256",
          "name": "",
          "type": "uint256"
        }
      ],
      "name": "registeredUsers",
      "outputs": [
        {
          "internalType": "address",
          "name": "user",
          "type": "address"
        }
      ],
      "stateMutability": "view",
      "type": "function"
    }
  ],
  "bytecode": "0x608060405234801561001057600080fd5b50613af9806100206000396000f3fe60806040526004361061009c5760003560e01c80637073c072116100645780637073c072146101515780637259e0f81461017c578063bde3e233146101b9578063c72b5176146101e2578063c8d584311461020d578063fa0b5e55146102365761009c565b8063236b5707146100a1578063341be4af146100bd57806350d5e78b146100e657806369e3337e146100fd5780637034f51714610126575b600080fd5b6100bb60048036038101906100b691906126e5565b610252565b005b3480156100c957600080fd5b506100e460048036038101906100df91906127e2565b610580565b005b3480156100f257600080fd5b506100fb61067a565b005b34801561010957600080fd5b50610124600480360381019061011f919061282b565b6106f6565b005b34801561013257600080fd5b5061013b610849565b6040516101489190612922565b60405180910390f35b34801561015d57600080fd5b5061016661098d565b6040516101739190612b1a565b60405180910390f35b34801561018857600080fd5b506101a3600480360381019061019e9190612b72565b610a9a565b6040516101b09190612bae565b60405180910390f35b3480156101c557600080fd5b506101e060048036038101906101db9190612bc9565b610ae8565b005b3480156101ee57600080fd5b506101f7610c94565b6040516102049190612f2d565b60405180910390f35b34801561021957600080fd5b50610234600480360381019061022f9190612f4f565b611273565b005b610250600480360381019061024b9190612f7c565b611f95565b005b60006040518061012001604052808881526020018781526020018481526020018381526020018673ffffffffffffffffffffffffffffffffffffffff1681526020018573ffffffffffffffffffffffffffffffffffffffff168152602001600067ffffffffffffffff8111156102cb576102ca61255c565b5b6040519080825280602002602001820160405280156102fe57816020015b60608152602001906001900390816102e95790505b508152602001600067ffffffffffffffff81111561031f5761031e61255c565b5b60405190808252806020026020018201604052801561035257816020015b606081526020019060019003908161033d5790505b508152602001600067ffffffffffffffff8111156103735761037261255c565b5b6040519080825280602002602001820160405280156103a657816020015b60608152602001906001900390816103915790505b508152509050600081908060018154018082558091505060019003906000526020600020906009020160009091909190915060008201518160000190816103ed91906131c8565b50602082015181600101908161040391906131c8565b50604082015181600201908161041991906131c8565b50606082015181600301908161042f91906131c8565b5060808201518160040160006101000a81548173ffffffffffffffffffffffffffffffffffffffff021916908373ffffffffffffffffffffffffffffffffffffffff16021790555060a08201518160050160006101000a81548173ffffffffffffffffffffffffffffffffffffffff021916908373ffffffffffffffffffffffffffffffffffffffff16021790555060c08201518160060190805190602001906104da92919061232f565b5060e08201518160070190805190602001906104f792919061232f565b5061010082015181600801908051906020019061051592919061232f565b5050507f77a799b7fa2dcb2cee07423cf95096b3ca5331f5f48ab293e248e81ab96583c8816000015182602001518360400151846060015185608001518660a001518760c0015160405161056f9796959493929190613320565b60405180910390a150505050505050565b6000805b60008054905081101561061d57826040516020016105a291906133ee565b60405160208183030381529060405280519060200120600082815481106105cc576105cb613405565b5b90600052602060002090600902016000016040516020016105ed91906134b7565b60405160208183030381529060405280519060200120036106105780915061061d565b8080600101915050610584565b507f548fe2fba4733c71bcc8f041cfcaa2680314b907e605387e39fa2950ff4c2c116000828154811061065357610652613405565b5b906000526020600020906009020160405161066e919061374d565b60405180910390a15050565b60005b6001805490508110156106f3576001818154811061069e5761069d613405565b5b9060005260206000209060020201600080820160006101000a81549073ffffffffffffffffffffffffffffffffffffffff02191690556001820160006106e49190612388565b5050808060010191505061067d565b50565b6000805b600080549050811015610793578360405160200161071891906133ee565b604051602081830303815290604052805190602001206000828154811061074257610741613405565b5b906000526020600020906009020160000160405160200161076391906134b7565b604051602081830303815290604052805190602001200361078657809150610793565b80806001019150506106fa565b50600081815481106107a8576107a7613405565b5b9060005260206000209060090201600601829080600181540180825580915050600190039060005260206000200160009091909190915090816107eb91906131c8565b507f548fe2fba4733c71bcc8f041cfcaa2680314b907e605387e39fa2950ff4c2c116000828154811061082157610820613405565b5b906000526020600020906009020160405161083c919061374d565b60405180910390a1505050565b606060005b60008054905081101561095157600080548061086d5761086c61376f565b5b60019003818190600052602060002090600902016000808201600061089291906123a9565b6001820160006108a291906123a9565b6002820160006108b291906123a9565b6003820160006108c291906123a9565b6004820160006101000a81549073ffffffffffffffffffffffffffffffffffffffff02191690556005820160006101000a81549073ffffffffffffffffffffffffffffffffffffffff021916905560068201600061092091906123e9565b60078201600061093091906123e9565b60088201600061094091906123e9565b50509055808060010191505061084e565b506040518060400160405280601281526020017f416c6c2067726f7570732064656c657465640000000000000000000000000000815250905090565b60606001805480602002602001604051908101604052809291908181526020016000905b82821015610a9157838290600052602060002090600202016040518060400160405290816000820160009054906101000a900473ffffffffffffffffffffffffffffffffffffffff1673ffffffffffffffffffffffffffffffffffffffff1673ffffffffffffffffffffffffffffffffffffffff16815260200160018201805480602002602001604051908101604052809291908181526020018280548015610a7957602002820191906000526020600020905b815481526020019060010190808311610a65575b505050505081525050815260200190600101906109b1565b50505050905090565b60018181548110610aaa57600080fd5b90600052602060002090600202016000915090508060000160009054906101000a900473ffffffffffffffffffffffffffffffffffffffff16905081565b6000805b600080549050811015610b855784604051602001610b0a91906133ee565b6040516020818303038152906040528051906020012060008281548110610b3457610b33613405565b5b9060005260206000209060090201600001604051602001610b5591906134b7565b6040516020818303038152906040528051906020012003610b7857809150610b85565b8080600101915050610aec565b5060008181548110610b9a57610b99613405565b5b906000526020600020906009020160070183908060018154018082558091505060019003906000526020600020016000909190919091509081610bdd91906131c8565b5060008181548110610bf257610bf1613405565b5b906000526020600020906009020160080182908060018154018082558091505060019003906000526020600020016000909190919091509081610c3591906131c8565b507f548fe2fba4733c71bcc8f041cfcaa2680314b907e605387e39fa2950ff4c2c1160008281548110610c6b57610c6a613405565b5b9060005260206000209060090201604051610c86919061374d565b60405180910390a150505050565b60606000805480602002602001604051908101604052809291908181526020016000905b8282101561126a578382906000526020600020906009020160405180610120016040529081600082018054610cec90612feb565b80601f0160208091040260200160405190810160405280929190818152602001828054610d1890612feb565b8015610d655780601f10610d3a57610100808354040283529160200191610d65565b820191906000526020600020905b815481529060010190602001808311610d4857829003601f168201915b50505050508152602001600182018054610d7e90612feb565b80601f0160208091040260200160405190810160405280929190818152602001828054610daa90612feb565b8015610df75780601f10610dcc57610100808354040283529160200191610df7565b820191906000526020600020905b815481529060010190602001808311610dda57829003601f168201915b50505050508152602001600282018054610e1090612feb565b80601f0160208091040260200160405190810160405280929190818152602001828054610e3c90612feb565b8015610e895780601f10610e5e57610100808354040283529160200191610e89565b820191906000526020600020905b815481529060010190602001808311610e6c57829003601f168201915b50505050508152602001600382018054610ea290612feb565b80601f0160208091040260200160405190810160405280929190818152602001828054610ece90612feb565b8015610f1b5780601f10610ef057610100808354040283529160200191610f1b565b820191906000526020600020905b815481529060010190602001808311610efe57829003601f168201915b505050505081526020016004820160009054906101000a900473ffffffffffffffffffffffffffffffffffffffff1673ffffffffffffffffffffffffffffffffffffffff1673ffffffffffffffffffffffffffffffffffffffff1681526020016005820160009054906101000a900473ffffffffffffffffffffffffffffffffffffffff1673ffffffffffffffffffffffffffffffffffffffff1673ffffffffffffffffffffffffffffffffffffffff16815260200160068201805480602002602001604051908101604052809291908181526020016000905b828210156110a157838290600052602060002001805461101490612feb565b80601f016020809104026020016040519081016040528092919081815260200182805461104090612feb565b801561108d5780601f106110625761010080835404028352916020019161108d565b820191906000526020600020905b81548152906001019060200180831161107057829003601f168201915b505050505081526020019060010190610ff5565b50505050815260200160078201805480602002602001604051908101604052809291908181526020016000905b8282101561117a5783829060005260206000200180546110ed90612feb565b80601f016020809104026020016040519081016040528092919081815260200182805461111990612feb565b80156111665780601f1061113b57610100808354040283529160200191611166565b820191906000526020600020905b81548152906001019060200180831161114957829003601f168201915b5050505050815260200190600101906110ce565b50505050815260200160088201805480602002602001604051908101604052809291908181526020016000905b828210156112535783829060005260206000200180546111c690612feb565b80601f01602080910402602001604051908101604052809291908181526020018280546111f290612feb565b801561123f5780601f106112145761010080835404028352916020019161123f565b820191906000526020600020905b81548152906001019060200180831161122257829003601f168201915b5050505050815260200190600101906111a7565b505050508152505081526020019060010190610cb8565b50505050905090565b606060005b600080549050811015611f59578273ffffffffffffffffffffffffffffffffffffffff16600082815481106112b0576112af613405565b5b906000526020600020906009020160040160009054906101000a900473ffffffffffffffffffffffffffffffffffffffff1673ffffffffffffffffffffffffffffffffffffffff16036118b6576118b3826000838154811061131557611314613405565b5b90600052602060002090600902016040518061012001604052908160008201805461133f90612feb565b80601f016020809104026020016040519081016040528092919081815260200182805461136b90612feb565b80156113b85780601f1061138d576101008083540402835291602001916113b8565b820191906000526020600020905b81548152906001019060200180831161139b57829003601f168201915b505050505081526020016001820180546113d190612feb565b80601f01602080910402602001604051908101604052809291908181526020018280546113fd90612feb565b801561144a5780601f1061141f5761010080835404028352916020019161144a565b820191906000526020600020905b81548152906001019060200180831161142d57829003601f168201915b5050505050815260200160028201805461146390612feb565b80601f016020809104026020016040519081016040528092919081815260200182805461148f90612feb565b80156114dc5780601f106114b1576101008083540402835291602001916114dc565b820191906000526020600020905b8154815290600101906020018083116114bf57829003601f168201915b505050505081526020016003820180546114f590612feb565b80601f016020809104026020016040519081016040528092919081815260200182805461152190612feb565b801561156e5780601f106115435761010080835404028352916020019161156e565b820191906000526020600020905b81548152906001019060200180831161155157829003601f168201915b505050505081526020016004820160009054906101000a900473ffffffffffffffffffffffffffffffffffffffff1673ffffffffffffffffffffffffffffffffffffffff1673ffffffffffffffffffffffffffffffffffffffff1681526020016005820160009054906101000a900473ffffffffffffffffffffffffffffffffffffffff1673ffffffffffffffffffffffffffffffffffffffff1673ffffffffffffffffffffffffffffffffffffffff16815260200160068201805480602002602001604051908101604052809291908181526020016000905b828210156116f457838290600052602060002001805461166790612feb565b80601f016020809104026020016040519081016040528092919081815260200182805461169390612feb565b80156116e05780601f106116b5576101008083540402835291602001916116e0565b820191906000526020600020905b8154815290600101906020018083116116c357829003601f168201915b505050505081526020019060010190611648565b50505050815260200160078201805480602002602001604051908101604052809291908181526020016000905b828210156117cd57838290600052602060002001805461174090612feb565b80601f016020809104026020016040519081016040528092919081815260200182805461176c90612feb565b80156117b95780601f1061178e576101008083540402835291602001916117b9565b820191906000526020600020905b81548152906001019060200180831161179c57829003601f168201915b505050505081526020019060010190611721565b50505050815260200160088201805480602002602001604051908101604052809291908181526020016000905b828210156118a657838290600052602060002001805461181990612feb565b80601f016020809104026020016040519081016040528092919081815260200182805461184590612feb565b80156118925780601f1061186757610100808354040283529160200191611892565b820191906000526020600020905b81548152906001019060200180831161187557829003601f168201915b5050505050815260200190600101906117fa565b505050508152505061224b565b91505b60005b600082815481106118cd576118cc613405565b5b906000526020600020906009020160060180549050811015611f4b578373ffffffffffffffffffffffffffffffffffffffff166000838154811061191457611913613405565b5b9060005260206000209060090201600601828154811061193757611936613405565b5b9060005260206000200160405160200161195191906134b7565b6040516020818303038152906040528051906020012060001c73ffffffffffffffffffffffffffffffffffffffff1603611f3e57611f3b836000848154811061199d5761199c613405565b5b9060005260206000209060090201604051806101200160405290816000820180546119c790612feb565b80601f01602080910402602001604051908101604052809291908181526020018280546119f390612feb565b8015611a405780601f10611a1557610100808354040283529160200191611a40565b820191906000526020600020905b815481529060010190602001808311611a2357829003601f168201915b50505050508152602001600182018054611a5990612feb565b80601f0160208091040260200160405190810160405280929190818152602001828054611a8590612feb565b8015611ad25780601f10611aa757610100808354040283529160200191611ad2565b820191906000526020600020905b815481529060010190602001808311611ab557829003601f168201915b50505050508152602001600282018054611aeb90612feb565b80601f0160208091040260200160405190810160405280929190818152602001828054611b1790612feb565b8015611b645780601f10611b3957610100808354040283529160200191611b64565b820191906000526020600020905b815481529060010190602001808311611b4757829003601f168201915b50505050508152602001600382018054611b7d90612feb565b80601f0160208091040260200160405190810160405280929190818152602001828054611ba990612feb565b8015611bf65780601f10611bcb57610100808354040283529160200191611bf6565b820191906000526020600020905b815481529060010190602001808311611bd957829003601f168201915b505050505081526020016004820160009054906101000a900473ffffffffffffffffffffffffffffffffffffffff1673ffffffffffffffffffffffffffffffffffffffff1673ffffffffffffffffffffffffffffffffffffffff1681526020016005820160009054906101000a900473ffffffffffffffffffffffffffffffffffffffff1673ffffffffffffffffffffffffffffffffffffffff1673ffffffffffffffffffffffffffffffffffffffff16815260200160068201805480602002602001604051908101604052809291908181526020016000905b82821015611d7c578382906000526020600020018054611cef90612feb565b80601f0160208091040260200160405190810160405280929190818152602001828054611d1b90612feb565b8015611d685780601f10611d3d57610100808354040283529160200191611d68565b820191906000526020600020905b815481529060010190602001808311611d4b57829003601f168201915b505050505081526020019060010190611cd0565b50505050815260200160078201805480602002602001604051908101604052809291908181526020016000905b82821015611e55578382906000526020600020018054611dc890612feb565b80601f0160208091040260200160405190810160405280929190818152602001828054611df490612feb565b8015611e415780601f10611e1657610100808354040283529160200191611e41565b820191906000526020600020905b815481529060010190602001808311611e2457829003601f168201915b505050505081526020019060010190611da9565b50505050815260200160088201805480602002602001604051908101604052809291908181526020016000905b82821015611f2e578382906000526020600020018054611ea190612feb565b80601f0160208091040260200160405190810160405280929190818152602001828054611ecd90612feb565b8015611f1a5780601f10611eef57610100808354040283529160200191611f1a565b820191906000526020600020905b815481529060010190602001808311611efd57829003601f168201915b505050505081526020019060010190611e82565b505050508152505061224b565b92505b80806001019150506118b9565b508080600101915050611278565b507fdac61f80636dfe2b41706e70ab6f402545ca06a5aa7b94143d8210fc72ed036c81604051611f899190612f2d565b60405180910390a15050565b803414611fd7576040517f08c379a0000000000000000000000000000000000000000000000000000000008152600401611fce906137ea565b60405180910390fd5b600160405180604001604052803373ffffffffffffffffffffffffffffffffffffffff168152602001600067ffffffffffffffff81111561201b5761201a61255c565b5b6040519080825280602002602001820160405280156120495781602001602082028036833780820191505090505b50815250908060018154018082558091505060019003906000526020600020906002020160009091909190915060008201518160000160006101000a81548173ffffffffffffffffffffffffffffffffffffffff021916908373ffffffffffffffffffffffffffffffffffffffff16021790555060208201518160010190805190602001906120d992919061240a565b5050508173ffffffffffffffffffffffffffffffffffffffff166108fc829081150290604051600060405180830381858888f19350505050158015612122573d6000803e3d6000fd5b503360018080805490506121369190613839565b8154811061214757612146613405565b5b906000526020600020906002020160000160006101000a81548173ffffffffffffffffffffffffffffffffffffffff021916908373ffffffffffffffffffffffffffffffffffffffff16021790555060018080805490506121a89190613839565b815481106121b9576121b8613405565b5b9060005260206000209060020201600101434090806001815401808255809150506001900390600052602060002001600090919091909150553373ffffffffffffffffffffffffffffffffffffffff167f71cf8c104d29c18489e7b0ee04722fcbead8c1d1632cc1ff936c1538ae94c092838342600160405161223f9493929190613a43565b60405180910390a25050565b606060006001845161225d9190613a8f565b67ffffffffffffffff8111156122765761227561255c565b5b6040519080825280602002602001820160405280156122af57816020015b61229c612457565b8152602001906001900390816122945790505b50905060005b8451811015612304578481815181106122d1576122d0613405565b5b60200260200101518282815181106122ec576122eb613405565b5b602002602001018190525080806001019150506122b5565b50828185518151811061231a57612319613405565b5b60200260200101819052508091505092915050565b828054828255906000526020600020908101928215612377579160200282015b8281111561237657825182908161236691906131c8565b509160200191906001019061234f565b5b50905061238491906124cf565b5090565b50805460008255906000526020600020908101906123a691906124f3565b50565b5080546123b590612feb565b6000825580601f106123c757506123e6565b601f0160209004906000526020600020908101906123e59190612510565b5b50565b508054600082559060005260206000209081019061240791906124cf565b50565b828054828255906000526020600020908101928215612446579160200282015b8281111561244557825182559160200191906001019061242a565b5b50905061245391906124f3565b5090565b60405180610120016040528060608152602001606081526020016060815260200160608152602001600073ffffffffffffffffffffffffffffffffffffffff168152602001600073ffffffffffffffffffffffffffffffffffffffff1681526020016060815260200160608152602001606081525090565b5b808211156124ef57600081816124e691906123a9565b506001016124d0565b5090565b5b8082111561250c5760008160009055506001016124f4565b5090565b5b80821115612529576000816000905550600101612511565b5090565b6000604051905090565b600080fd5b600080fd5b600080fd5b600080fd5b6000601f19601f8301169050919050565b7f4e487b7100000000000000000000000000000000000000000000000000000000600052604160045260246000fd5b6125948261254b565b810181811067ffffffffffffffff821117156125b3576125b261255c565b5b80604052505050565b60006125c661252d565b90506125d2828261258b565b919050565b600067ffffffffffffffff8211156125f2576125f161255c565b5b6125fb8261254b565b9050602081019050919050565b82818337600083830152505050565b600061262a612625846125d7565b6125bc565b90508281526020810184848401111561264657612645612546565b5b612651848285612608565b509392505050565b600082601f83011261266e5761266d612541565b5b813561267e848260208601612617565b91505092915050565b600073ffffffffffffffffffffffffffffffffffffffff82169050919050565b60006126b282612687565b9050919050565b6126c2816126a7565b81146126cd57600080fd5b50565b6000813590506126df816126b9565b92915050565b60008060008060008060c0878903121561270257612701612537565b5b600087013567ffffffffffffffff8111156127205761271f61253c565b5b61272c89828a01612659565b965050602087013567ffffffffffffffff81111561274d5761274c61253c565b5b61275989828a01612659565b955050604061276a89828a016126d0565b945050606061277b89828a016126d0565b935050608087013567ffffffffffffffff81111561279c5761279b61253c565b5b6127a889828a01612659565b92505060a087013567ffffffffffffffff8111156127c9576127c861253c565b5b6127d589828a01612659565b9150509295509295509295565b6000602082840312156127f8576127f7612537565b5b600082013567ffffffffffffffff8111156128165761281561253c565b5b61282284828501612659565b91505092915050565b6000806040838503121561284257612841612537565b5b600083013567ffffffffffffffff8111156128605761285f61253c565b5b61286c85828601612659565b925050602083013567ffffffffffffffff81111561288d5761288c61253c565b5b61289985828601612659565b9150509250929050565b600081519050919050565b600082825260208201905092915050565b60005b838110156128dd5780820151818401526020810190506128c2565b60008484015250505050565b60006128f4826128a3565b6128fe81856128ae565b935061290e8185602086016128bf565b6129178161254b565b840191505092915050565b6000602082019050818103600083015261293c81846128e9565b905092915050565b600081519050919050565b600082825260208201905092915050565b6000819050602082019050919050565b612979816126a7565b82525050565b600081519050919050565b600082825260208201905092915050565b6000819050602082019050919050565b6000819050919050565b6129be816129ab565b82525050565b60006129d083836129b5565b60208301905092915050565b6000602082019050919050565b60006129f48261297f565b6129fe818561298a565b9350612a098361299b565b8060005b83811015612a3a578151612a2188826129c4565b9750612a2c836129dc565b925050600181019050612a0d565b5085935050505092915050565b6000604083016000830151612a5f6000860182612970565b5060208301518482036020860152612a7782826129e9565b9150508091505092915050565b6000612a908383612a47565b905092915050565b6000602082019050919050565b6000612ab082612944565b612aba818561294f565b935083602082028501612acc85612960565b8060005b85811015612b085784840389528151612ae98582612a84565b9450612af483612a98565b925060208a01995050600181019050612ad0565b50829750879550505050505092915050565b60006020820190508181036000830152612b348184612aa5565b905092915050565b6000819050919050565b612b4f81612b3c565b8114612b5a57600080fd5b50565b600081359050612b6c81612b46565b92915050565b600060208284031215612b8857612b87612537565b5b6000612b9684828501612b5d565b91505092915050565b612ba8816126a7565b82525050565b6000602082019050612bc36000830184612b9f565b92915050565b600080600060608486031215612be257612be1612537565b5b600084013567ffffffffffffffff811115612c0057612bff61253c565b5b612c0c86828701612659565b935050602084013567ffffffffffffffff811115612c2d57612c2c61253c565b5b612c3986828701612659565b925050604084013567ffffffffffffffff811115612c5a57612c5961253c565b5b612c6686828701612659565b9150509250925092565b600081519050919050565b600082825260208201905092915050565b6000819050602082019050919050565b600082825260208201905092915050565b6000612cb8826128a3565b612cc28185612c9c565b9350612cd28185602086016128bf565b612cdb8161254b565b840191505092915050565b600081519050919050565b600082825260208201905092915050565b6000819050602082019050919050565b6000612d1e8383612cad565b905092915050565b6000602082019050919050565b6000612d3e82612ce6565b612d488185612cf1565b935083602082028501612d5a85612d02565b8060005b85811015612d965784840389528151612d778582612d12565b9450612d8283612d26565b925060208a01995050600181019050612d5e565b50829750879550505050505092915050565b6000610120830160008301518482036000860152612dc68282612cad565b91505060208301518482036020860152612de08282612cad565b91505060408301518482036040860152612dfa8282612cad565b91505060608301518482036060860152612e148282612cad565b9150506080830151612e296080860182612970565b5060a0830151612e3c60a0860182612970565b5060c083015184820360c0860152612e548282612d33565b91505060e083015184820360e0860152612e6e8282612d33565b915050610100830151848203610100860152612e8a8282612d33565b9150508091505092915050565b6000612ea38383612da8565b905092915050565b6000602082019050919050565b6000612ec382612c70565b612ecd8185612c7b565b935083602082028501612edf85612c8c565b8060005b85811015612f1b5784840389528151612efc8582612e97565b9450612f0783612eab565b925060208a01995050600181019050612ee3565b50829750879550505050505092915050565b60006020820190508181036000830152612f478184612eb8565b905092915050565b600060208284031215612f6557612f64612537565b5b6000612f73848285016126d0565b91505092915050565b60008060408385031215612f9357612f92612537565b5b6000612fa1858286016126d0565b9250506020612fb285828601612b5d565b9150509250929050565b7f4e487b7100000000000000000000000000000000000000000000000000000000600052602260045260246000fd5b6000600282049050600182168061300357607f821691505b60208210810361301657613015612fbc565b5b50919050565b60008190508160005260206000209050919050565b60006020601f8301049050919050565b600082821b905092915050565b60006008830261307e7fffffffffffffffffffffffffffffffffffffffffffffffffffffffffffffffff82613041565b6130888683613041565b95508019841693508086168417925050509392505050565b6000819050919050565b60006130c56130c06130bb84612b3c565b6130a0565b612b3c565b9050919050565b6000819050919050565b6130df836130aa565b6130f36130eb826130cc565b84845461304e565b825550505050565b600090565b6131086130fb565b6131138184846130d6565b505050565b5b818110156131375761312c600082613100565b600181019050613119565b5050565b601f82111561317c5761314d8161301c565b61315684613031565b81016020851015613165578190505b61317961317185613031565b830182613118565b50505b505050565b600082821c905092915050565b600061319f60001984600802613181565b1980831691505092915050565b60006131b8838361318e565b9150826002028217905092915050565b6131d1826128a3565b67ffffffffffffffff8111156131ea576131e961255c565b5b6131f48254612feb565b6131ff82828561313b565b600060209050601f8311600181146132325760008415613220578287015190505b61322a85826131ac565b865550613292565b601f1984166132408661301c565b60005b8281101561326857848901518255600182019150602085019450602081019050613243565b868310156132855784890151613281601f89168261318e565b8355505b6001600288020188555050505b505050505050565b600082825260208201905092915050565b60006132b682612ce6565b6132c0818561329a565b9350836020820285016132d285612d02565b8060005b8581101561330e57848403895281516132ef8582612d12565b94506132fa83612d26565b925060208a019950506001810190506132d6565b50829750879550505050505092915050565b600060e082019050818103600083015261333a818a6128e9565b9050818103602083015261334e81896128e9565b9050818103604083015261336281886128e9565b9050818103606083015261337681876128e9565b90506133856080830186612b9f565b61339260a0830185612b9f565b81810360c08301526133a481846132ab565b905098975050505050505050565b600081905092915050565b60006133c8826128a3565b6133d281856133b2565b93506133e28185602086016128bf565b80840191505092915050565b60006133fa82846133bd565b915081905092915050565b7f4e487b7100000000000000000000000000000000000000000000000000000000600052603260045260246000fd5b6000815461344181612feb565b61344b81866133b2565b94506001821660008114613466576001811461347b576134ae565b60ff19831686528115158202860193506134ae565b6134848561301c565b60005b838110156134a657815481890152600182019150602081019050613487565b838801955050505b50505092915050565b60006134c38284613434565b915081905092915050565b600081546134db81612feb565b6134e58186612c9c565b94506001821660008114613500576001811461351657613549565b60ff198316865281151560200286019350613549565b61351f8561301c565b60005b8381101561354157815481890152600182019150602081019050613522565b808801955050505b50505092915050565b60008160001c9050919050565b600073ffffffffffffffffffffffffffffffffffffffff82169050919050565b600061359261358d83613552565b61355f565b9050919050565b600081549050919050565b60008190508160005260206000209050919050565b60006135c583836134ce565b905092915050565b6000600182019050919050565b60006135e582613599565b6135ef8185612cf1565b935083602082028501613601856135a4565b8060005b8581101561363c5784840389528161361d85826135b9565b9450613628836135cd565b925060208a01995050600181019050613605565b50829750879550505050505092915050565b600061012083016000808401858303600087015261366c83826134ce565b92505060018401858303602087015261368583826134ce565b92505060028401858303604087015261369e83826134ce565b9250506003840185830360608701526136b783826134ce565b925050600484015490506136ca8161357f565b6136d76080870182612970565b50600584015490506136e88161357f565b6136f560a0870182612970565b506006840185830360c087015261370c83826135da565b9250506007840185830360e087015261372583826135da565b9250506008840185830361010087015261373f83826135da565b925050819250505092915050565b60006020820190508181036000830152613767818461364e565b905092915050565b7f4e487b7100000000000000000000000000000000000000000000000000000000600052603160045260246000fd5b7f496e73756666696369656e742045746865722073656e74000000000000000000600082015250565b60006137d46017836128ae565b91506137df8261379e565b602082019050919050565b60006020820190508181036000830152613803816137c7565b9050919050565b7f4e487b7100000000000000000000000000000000000000000000000000000000600052601160045260246000fd5b600061384482612b3c565b915061384f83612b3c565b92508282039050818111156138675761386661380a565b5b92915050565b61387681612b3c565b82525050565b600081549050919050565b60008190508160005260206000209050919050565b600081549050919050565b60008190508160005260206000209050919050565b6000819050919050565b60006138d96138d483613552565b6138bc565b9050919050565b60006138ec82546138c6565b9050919050565b6000600182019050919050565b600061390b8261389c565b613915818561298a565b9350613920836138a7565b8060005b8381101561395857613935826138e0565b61393f88826129c4565b975061394a836138f3565b925050600181019050613924565b5085935050505092915050565b600060408301600080840154905061397c8161357f565b6139896000870182612970565b506001840185830360208701526139a08382613900565b925050819250505092915050565b60006139ba8383613965565b905092915050565b6000600282019050919050565b60006139da8261387c565b6139e4818561294f565b9350836020820285016139f685613887565b8060005b85811015613a3157848403895281613a1285826139ae565b9450613a1d836139c2565b925060208a019950506001810190506139fa565b50829750879550505050505092915050565b6000608082019050613a586000830187612b9f565b613a65602083018661386d565b613a72604083018561386d565b8181036060830152613a8481846139cf565b905095945050505050565b6000613a9a82612b3c565b9150613aa583612b3c565b9250828201905080821115613abd57613abc61380a565b5b9291505056fea26469706673582212205a8c52143fb55aa775402f074efe1eeaab3d25ef5e917ed485f4cfd824de225e64736f6c63430008180033",
  "linkReferences": {},
  "deployedLinkReferences": {}
}